:100000000C9434000C94C4000C9451000C945100D6
:100010000C9451000C9451000C9451000C9451001C
:100020000C9451000C9451000C9451000C9451000C
:100030000C9451000C948C000C9451000C945100C1
:100040000C9451000C9451000C9451000C945100EC
:100050000C9451000C9451000C9451000C945100DC
:100060000C9451000C94510011241FBECFEFD8E026
:10007000DEBFCDBF11E0A0E0B1E0E0ECF1E002C0F6
:1000800005900D92A435B107D9F721E0A4E5B1E0C0
:1000900001C01D92A535B207E1F70E94DB000C9468
:1000A000DE000C940000F89484B7877F84BFE0E6FC
:1000B000F0E0808188618083108284B1866284B997
:1000C00085B1866085B9EFE6F0E01082A1E8B0E086
:1000D0001C92C0E8D0E018828881826C88838C9161
:1000E00089618C9380818160808352985A98EEE672
:1000F000F0E080818E7F8083E9E6F0E0808183609C
:100100008083E89A809151019091520190938700E9
:1001100080938600789408951F920F920FB60F92E5
:100120001124F89480915501882341F0809180003A
:1001300090EF89278093800010925501909154018F
:1001400080915001981728F01092540181E080931B
:10015000550180915401E82FF0E0EE0FFF1FE050B1
:10016000FF4F2081318130938B0020938A003093A0
:100170008900209388008F5F8093540178940F90BA
:100180000FBE0F901F9018951F920F920FB60F92EF
:100190001124F89414B88FEF85B9259A1D9AE0E6DA
:1001A000F0E088E1808389E280831D9A0F900FBE82
:1001B0000F901F9018950E945300FFCFF894FFCF27
:1001C00000003A017202A603D404FB0518072A08AE
:1001D0002F09260A0C0BE20BA40C530DEC0D700E2C
:1001E000DC0E310F6F0F940FA00F940F6F0F310FB4
:1001F000DC0E700EEC0D530DA40CE20B0C0B260A5A
:100200002F092A081807FB05D404A60372023A0135
:0402100028A00F0013
:00000001FF
